{
  "_format": "hh-sol-artifact-1",
  "contractName": "TimeLockEscrow",
  "sourceName": "contracts/TimeLockEscrow.sol",
  "abi": [
    {
      "inputs": [],
      "stateMutability": "nonpayable",
      "type": "constructor"
    },
    {
      "anonymous": false,
      "inputs": [
        {
          "indexed": true,
          "internalType": "address",
          "name": "_sender",
          "type": "address"
        },
        {
          "indexed": true,
          "internalType": "address",
          "name": "_recipient",
          "type": "address"
        },
        {
          "indexed": false,
          "internalType": "uint256",
          "name": "_amount",
          "type": "uint256"
        }
      ],
      "name": "DepositCreation",
      "type": "event"
    },
    {
      "anonymous": false,
      "inputs": [
        {
          "indexed": true,
          "internalType": "address",
          "name": "_recipient",
          "type": "address"
        },
        {
          "indexed": false,
          "internalType": "uint256",
          "name": "_amount",
          "type": "uint256"
        }
      ],
      "name": "WithdrawalToRecipient",
      "type": "event"
    },
    {
      "anonymous": false,
      "inputs": [
        {
          "indexed": true,
          "internalType": "address",
          "name": "_sender",
          "type": "address"
        },
        {
          "indexed": false,
          "internalType": "uint256",
          "name": "_amount",
          "type": "uint256"
        }
      ],
      "name": "WithdrawalToSender",
      "type": "event"
    },
    {
      "inputs": [
        {
          "internalType": "address payable",
          "name": "_recipient",
          "type": "address"
        },
        {
          "internalType": "uint256",
          "name": "_lockTime",
          "type": "uint256"
        }
      ],
      "name": "createDeposit",
      "outputs": [],
      "stateMutability": "payable",
      "type": "function"
    },
    {
      "inputs": [
        {
          "internalType": "address",
          "name": "",
          "type": "address"
        },
        {
          "internalType": "address",
          "name": "",
          "type": "address"
        }
      ],
      "name": "deposits",
      "outputs": [
        {
          "internalType": "address payable",
          "name": "sender",
          "type": "address"
        },
        {
          "internalType": "address payable",
          "name": "recipient",
          "type": "address"
        },
        {
          "internalType": "uint256",
          "name": "deadline",
          "type": "uint256"
        },
        {
          "internalType": "uint256",
          "name": "amount",
          "type": "uint256"
        }
      ],
      "stateMutability": "view",
      "type": "function"
    },
    {
      "inputs": [
        {
          "internalType": "address",
          "name": "_sender",
          "type": "address"
        }
      ],
      "name": "releaseForRecipient",
      "outputs": [],
      "stateMutability": "nonpayable",
      "type": "function"
    },
    {
      "inputs": [
        {
          "internalType": "address",
          "name": "_recipient",
          "type": "address"
        }
      ],
      "name": "withdrawToSender",
      "outputs": [],
      "stateMutability": "nonpayable",
      "type": "function"
    }
  ],
  "bytecode": "0x608060405234801561001057600080fd5b50611233806100206000396000f3fe60806040526004361061003f5760003560e01c8063442e501d1461004457806375330ece146100605780638f601f6614610089578063ac559259146100c9575b600080fd5b61005e60048036038101906100599190610c06565b6100f2565b005b34801561006c57600080fd5b5061008760048036038101906100829190610c84565b610316565b005b34801561009557600080fd5b506100b060048036038101906100ab9190610cb1565b610703565b6040516100c09493929190610d0f565b60405180910390f35b3480156100d557600080fd5b506100f060048036038101906100eb9190610c84565b610780565b005b60003411610135576040517f08c379a000000000000000000000000000000000000000000000000000000000815260040161012c90610dd7565b60405180910390fd5b60405180608001604052803373ffffffffffffffffffffffffffffffffffffffff1681526020018373ffffffffffffffffffffffffffffffffffffffff16815260200182426101849190610e26565b8152602001348152506000803373ffffffffffffffffffffffffffffffffffffffff1673ffffffffffffffffffffffffffffffffffffffff16815260200190815260200160002060008473ffffffffffffffffffffffffffffffffffffffff1673ffffffffffffffffffffffffffffffffffffffff16815260200190815260200160002060008201518160000160006101000a81548173ffffffffffffffffffffffffffffffffffffffff021916908373ffffffffffffffffffffffffffffffffffffffff16021790555060208201518160010160006101000a81548173ffffffffffffffffffffffffffffffffffffffff021916908373ffffffffffffffffffffffffffffffffffffffff16021790555060408201518160020155606082015181600301559050508173ffffffffffffffffffffffffffffffffffffffff163373ffffffffffffffffffffffffffffffffffffffff167ff5de49fc43e3d23dda782698f2052bfe0bef3e43a0c78ba5e115d68cc2021ea43460405161030a9190610e7c565b60405180910390a35050565b60008060003373ffffffffffffffffffffffffffffffffffffffff1673ffffffffffffffffffffffffffffffffffffffff16815260200190815260200160002060008373ffffffffffffffffffffffffffffffffffffffff1673ffffffffffffffffffffffffffffffffffffffff1681526020019081526020016000206040518060800160405290816000820160009054906101000a900473ffffffffffffffffffffffffffffffffffffffff1673ffffffffffffffffffffffffffffffffffffffff1673ffffffffffffffffffffffffffffffffffffffff1681526020016001820160009054906101000a900473ffffffffffffffffffffffffffffffffffffffff1673ffffffffffffffffffffffffffffffffffffffff1673ffffffffffffffffffffffffffffffffffffffff1681526020016002820154815260200160038201548152505090503373ffffffffffffffffffffffffffffffffffffffff16816000015173ffffffffffffffffffffffffffffffffffffffff16146104d2576040517f08c379a00000000000000000000000000000000000000000000000000000000081526004016104c990610f09565b60405180910390fd5b42816040015111610518576040517f08c379a000000000000000000000000000000000000000000000000000000000815260040161050f90610f9b565b60405180910390fd5b6000816000015173ffffffffffffffffffffffffffffffffffffffff16826060015160405161054690610fec565b60006040518083038185875af1925050503d8060008114610583576040519150601f19603f3d011682016040523d82523d6000602084013e610588565b606091505b50509050806105cc576040517f08c379a00000000000000000000000000000000000000000000000000000000081526004016105c39061104d565b60405180910390fd5b816000015173ffffffffffffffffffffffffffffffffffffffff167f165bb22648b255519670e80447b588e6424ae550b14aea49a4700d6f38ac1280836060015160405161061a9190610e7c565b60405180910390a26000803373ffffffffffffffffffffffffffffffffffffffff1673ffffffffffffffffffffffffffffffffffffffff16815260200190815260200160002060008473ffffffffffffffffffffffffffffffffffffffff1673ffffffffffffffffffffffffffffffffffffffff168152602001908152602001600020600080820160006101000a81549073ffffffffffffffffffffffffffffffffffffffff02191690556001820160006101000a81549073ffffffffffffffffffffffffffffffffffffffff0219169055600282016000905560038201600090555050505050565b6000602052816000526040600020602052806000526040600020600091509150508060000160009054906101000a900473ffffffffffffffffffffffffffffffffffffffff16908060010160009054906101000a900473ffffffffffffffffffffffffffffffffffffffff16908060020154908060030154905084565b60008060008373ffffffffffffffffffffffffffffffffffffffff1673ffffffffffffffffffffffffffffffffffffffff16815260200190815260200160002060003373ffffffffffffffffffffffffffffffffffffffff1673ffffffffffffffffffffffffffffffffffffffff1681526020019081526020016000206040518060800160405290816000820160009054906101000a900473ffffffffffffffffffffffffffffffffffffffff1673ffffffffffffffffffffffffffffffffffffffff1673ffffffffffffffffffffffffffffffffffffffff1681526020016001820160009054906101000a900473ffffffffffffffffffffffffffffffffffffffff1673ffffffffffffffffffffffffffffffffffffffff1673ffffffffffffffffffffffffffffffffffffffff1681526020016002820154815260200160038201548152505090503373ffffffffffffffffffffffffffffffffffffffff16816020015173ffffffffffffffffffffffffffffffffffffffff161461093c576040517f08c379a0000000000000000000000000000000000000000000000000000000008152600401610933906110df565b60405180910390fd5b42816040015110610982576040517f08c379a000000000000000000000000000000000000000000000000000000000815260040161097990611171565b60405180910390fd5b6000816020015173ffffffffffffffffffffffffffffffffffffffff1682606001516040516109b090610fec565b60006040518083038185875af1925050503d80600081146109ed576040519150601f19603f3d011682016040523d82523d6000602084013e6109f2565b606091505b5050905080610a36576040517f08c379a0000000000000000000000000000000000000000000000000000000008152600401610a2d906111dd565b60405180910390fd5b816020015173ffffffffffffffffffffffffffffffffffffffff167f3a2a3d41ebc8c51eacc805c91aa45dd95b92d8667df3e5f212fd8de5bc4b22d38360600151604051610a849190610e7c565b60405180910390a26000808473ffffffffffffffffffffffffffffffffffffffff1673ffffffffffffffffffffffffffffffffffffffff16815260200190815260200160002060003373ffffffffffffffffffffffffffffffffffffffff1673ffffffffffffffffffffffffffffffffffffffff168152602001908152602001600020600080820160006101000a81549073ffffffffffffffffffffffffffffffffffffffff02191690556001820160006101000a81549073ffffffffffffffffffffffffffffffffffffffff0219169055600282016000905560038201600090555050505050565b600080fd5b600073ffffffffffffffffffffffffffffffffffffffff82169050919050565b6000610b9d82610b72565b9050919050565b610bad81610b92565b8114610bb857600080fd5b50565b600081359050610bca81610ba4565b92915050565b6000819050919050565b610be381610bd0565b8114610bee57600080fd5b50565b600081359050610c0081610bda565b92915050565b60008060408385031215610c1d57610c1c610b6d565b5b6000610c2b85828601610bbb565b9250506020610c3c85828601610bf1565b9150509250929050565b6000610c5182610b72565b9050919050565b610c6181610c46565b8114610c6c57600080fd5b50565b600081359050610c7e81610c58565b92915050565b600060208284031215610c9a57610c99610b6d565b5b6000610ca884828501610c6f565b91505092915050565b60008060408385031215610cc857610cc7610b6d565b5b6000610cd685828601610c6f565b9250506020610ce785828601610c6f565b9150509250929050565b610cfa81610b92565b82525050565b610d0981610bd0565b82525050565b6000608082019050610d246000830187610cf1565b610d316020830186610cf1565b610d3e6040830185610d00565b610d4b6060830184610d00565b95945050505050565b600082825260208201905092915050565b7f416d6f756e74206d7573742062652067726561746572207468616e207a65726f60008201527f2e00000000000000000000000000000000000000000000000000000000000000602082015250565b6000610dc1602183610d54565b9150610dcc82610d65565b604082019050919050565b60006020820190508181036000830152610df081610db4565b9050919050565b7f4e487b7100000000000000000000000000000000000000000000000000000000600052601160045260246000fd5b6000610e3182610bd0565b9150610e3c83610bd0565b9250827fffffffffffffffffffffffffffffffffffffffffffffffffffffffffffffffff03821115610e7157610e70610df7565b5b828201905092915050565b6000602082019050610e916000830184610d00565b92915050565b7f4f6e6c792073656e6465722063616e20776974686472617720746f2073656e6460008201527f65722e0000000000000000000000000000000000000000000000000000000000602082015250565b6000610ef3602383610d54565b9150610efe82610e97565b604082019050919050565b60006020820190508181036000830152610f2281610ee6565b9050919050565b7f53656e646572206f6e6c79207769746864726177206265666f7265206465616460008201527f6c696e652e000000000000000000000000000000000000000000000000000000602082015250565b6000610f85602583610d54565b9150610f9082610f29565b604082019050919050565b60006020820190508181036000830152610fb481610f78565b9050919050565b600081905092915050565b50565b6000610fd6600083610fbb565b9150610fe182610fc6565b600082019050919050565b6000610ff782610fc9565b9150819050919050565b7f7769746864726177546f53656e646572206661696c6564000000000000000000600082015250565b6000611037601783610d54565b915061104282611001565b602082019050919050565b600060208201905081810360008301526110668161102a565b9050919050565b7f4f6e6c7920726563657069656e742063616e2072656c6561736520666f72207260008201527f6563697069656e742e0000000000000000000000000000000000000000000000602082015250565b60006110c9602983610d54565b91506110d48261106d565b604082019050919050565b600060208201905081810360008301526110f8816110bc565b9050919050565b7f52656c656173652063616e206f6e6c792068617070656e20616674657220646560008201527f61646c696e652e00000000000000000000000000000000000000000000000000602082015250565b600061115b602783610d54565b9150611166826110ff565b604082019050919050565b6000602082019050818103600083015261118a8161114e565b9050919050565b7f72656c65617365466f72526563697069656e74206661696c6564000000000000600082015250565b60006111c7601a83610d54565b91506111d282611191565b602082019050919050565b600060208201905081810360008301526111f6816111ba565b905091905056fea2646970667358221220f94bfe7f7d116475816cfa2da1f3434a2c05cca514b0953849b76375a5f4b40164736f6c63430008090033",
  "linkReferences": {},
  "deployedLinkReferences": {}
}